{
  "contractName": "BasicSale",
  "abi": [
    {
      "anonymous": false,
      "inputs": [
        {
          "indexed": true,
          "internalType": "address",
          "name": "investor",
          "type": "address"
        },
        {
          "indexed": false,
          "internalType": "uint256",
          "name": "amount",
          "type": "uint256"
        }
      ],
      "name": "FundsDeposited",
      "type": "event"
    },
    {
      "anonymous": false,
      "inputs": [
        {
          "indexed": false,
          "internalType": "address",
          "name": "recipient",
          "type": "address"
        },
        {
          "indexed": false,
          "internalType": "uint256",
          "name": "amount",
          "type": "uint256"
        }
      ],
      "name": "FundsTapped",
      "type": "event"
    },
    {
      "anonymous": false,
      "inputs": [
        {
          "indexed": true,
          "internalType": "address",
          "name": "account",
          "type": "address"
        },
        {
          "indexed": false,
          "internalType": "uint256",
          "name": "amount",
          "type": "uint256"
        }
      ],
      "name": "FundsWithdrawn",
      "type": "event"
    },
    {
      "anonymous": false,
      "inputs": [
        {
          "indexed": true,
          "internalType": "address",
          "name": "previousOwner",
          "type": "address"
        },
        {
          "indexed": true,
          "internalType": "address",
          "name": "newOwner",
          "type": "address"
        }
      ],
      "name": "OwnershipTransferred",
      "type": "event"
    },
    {
      "anonymous": false,
      "inputs": [
        {
          "indexed": true,
          "internalType": "address",
          "name": "investor",
          "type": "address"
        },
        {
          "indexed": false,
          "internalType": "uint256",
          "name": "amount",
          "type": "uint256"
        }
      ],
      "name": "TokensWithdrawn",
      "type": "event"
    },
    {
      "anonymous": false,
      "inputs": [],
      "name": "TokensWithdrawnAfterFailedSale",
      "type": "event"
    },
    {
      "inputs": [],
      "name": "owner",
      "outputs": [
        {
          "internalType": "address",
          "name": "",
          "type": "address"
        }
      ],
      "stateMutability": "view",
      "type": "function",
      "constant": true
    },
    {
      "inputs": [],
      "name": "renounceOwnership",
      "outputs": [],
      "stateMutability": "nonpayable",
      "type": "function"
    },
    {
      "inputs": [
        {
          "internalType": "address",
          "name": "newOwner",
          "type": "address"
        }
      ],
      "name": "transferOwnership",
      "outputs": [],
      "stateMutability": "nonpayable",
      "type": "function"
    },
    {
      "stateMutability": "payable",
      "type": "receive",
      "payable": true
    },
    {
      "inputs": [
        {
          "internalType": "address",
          "name": "_fundRecipient",
          "type": "address"
        },
        {
          "internalType": "contract IERC20",
          "name": "_token",
          "type": "address"
        },
        {
          "internalType": "uint256",
          "name": "_totalForSale",
          "type": "uint256"
        },
        {
          "internalType": "uint256",
          "name": "_startDate",
          "type": "uint256"
        },
        {
          "internalType": "uint256",
          "name": "_endDate",
          "type": "uint256"
        },
        {
          "internalType": "uint256",
          "name": "_minimumFunding",
          "type": "uint256"
        },
        {
          "internalType": "uint256",
          "name": "_initialDevTapRate",
          "type": "uint256"
        },
        {
          "internalType": "uint256",
          "name": "_fundingCap",
          "type": "uint256"
        }
      ],
      "name": "init",
      "outputs": [],
      "stateMutability": "nonpayable",
      "type": "function"
    },
    {
      "inputs": [],
      "name": "claim",
      "outputs": [],
      "stateMutability": "nonpayable",
      "type": "function"
    },
    {
      "inputs": [],
      "name": "withdrawTokenAfterFailedSale",
      "outputs": [],
      "stateMutability": "nonpayable",
      "type": "function"
    },
    {
      "inputs": [],
      "name": "tap",
      "outputs": [],
      "stateMutability": "nonpayable",
      "type": "function"
    }
  ],
  "bytecode": "0x608060405234801561001057600080fd5b5060006100216100c460201b60201c565b9050806000806101000a81548173ffffffffffffffffffffffffffffffffffffffff021916908373ffffffffffffffffffffffffffffffffffffffff1602179055508073ffffffffffffffffffffffffffffffffffffffff16600073ffffffffffffffffffffffffffffffffffffffff167f8be0079c531659141344cd1fd0a4f28419497f9722a3daafe3b4186f6b6457e060405160405180910390a3506100cc565b600033905090565b6112aa806100db6000396000f3fe6080604052600436106100745760003560e01c80638da5cb5b1161004e5780638da5cb5b14610302578063957f561b14610343578063f2fde38b1461035a578063fd221031146103ab57610221565b80630d4b8cb9146102265780634e71d92d146102d4578063715018a6146102eb57610221565b366102215742600180015411156100f3576040517f08c379a00000000000000000000000000000000000000000000000000000000081526004018080602001828103825260208152602001807f546865206f66666572696e6720686173206e6f7420737461727465642079657481525060200191505060405180910390fd5b60016002015442111561016e576040517f08c379a000000000000000000000000000000000000000000000000000000000815260040180806020018281038252601e8152602001807f546865206f66666572696e672068617320616c726561647920656e646564000081525060200191505060405180910390fd5b3460016008016000828254019250508190555034600160070160003373ffffffffffffffffffffffffffffffffffffffff1673ffffffffffffffffffffffffffffffffffffffff168152602001908152602001600020600082825401925050819055503373ffffffffffffffffffffffffffffffffffffffff167f543ba50a5eec5e6178218e364b1d0f396157b3c8fa278522c2cb7fd99407d474346040518082815260200191505060405180910390a2005b600080fd5b34801561023257600080fd5b506102d2600480360361010081101561024a57600080fd5b81019080803573ffffffffffffffffffffffffffffffffffffffff169060200190929190803573ffffffffffffffffffffffffffffffffffffffff1690602001909291908035906020019092919080359060200190929190803590602001909291908035906020019092919080359060200190929190803590602001909291905050506103c2565b005b3480156102e057600080fd5b506102e96106c3565b005b3480156102f757600080fd5b5061030061072f565b005b34801561030e57600080fd5b506103176108b5565b604051808273ffffffffffffffffffffffffffffffffffffffff16815260200191505060405180910390f35b34801561034f57600080fd5b506103586108de565b005b34801561036657600080fd5b506103a96004803603602081101561037d57600080fd5b81019080803573ffffffffffffffffffffffffffffffffffffffff169060200190929190505050610a12565b005b3480156103b757600080fd5b506103c0610c1d565b005b6103ca610d51565b73ffffffffffffffffffffffffffffffffffffffff1660008054906101000a900473ffffffffffffffffffffffffffffffffffffffff1673ffffffffffffffffffffffffffffffffffffffff161461048a576040517f08c379a00000000000000000000000000000000000000000000000000000000081526004018080602001828103825260208152602001807f4f776e61626c653a2063616c6c6572206973206e6f7420746865206f776e657281525060200191505060405180910390fd5b600160000160009054906101000a900460ff1615610510576040517f08c379a000000000000000000000000000000000000000000000000000000000815260040180806020018281038252601c8152602001807f436f6e747261637420616c726561647920696e697469616c697365640000000081525060200191505060405180910390fd5b848411610568576040517f08c379a00000000000000000000000000000000000000000000000000000000081526004018080602001828103825260248152602001806111d06024913960400191505060405180910390fd5b600083116105c1576040517f08c379a000000000000000000000000000000000000000000000000000000000815260040180806020018281038252603181526020018061121a6031913960400191505060405180910390fd5b86600160000160016101000a81548173ffffffffffffffffffffffffffffffffffffffff021916908373ffffffffffffffffffffffffffffffffffffffff16021790555085600160030181905550846001800181905550836001600201819055508260016004018190555080600160050181905550816001600601819055508360016009018190555061069c883088600160000160019054906101000a900473ffffffffffffffffffffffffffffffffffffffff1673ffffffffffffffffffffffffffffffffffffffff16610d59909392919063ffffffff16565b60018060000160006101000a81548160ff0219169083151502179055505050505050505050565b600173__DaicoUtils____________________________637881a38690916040518263ffffffff1660e01b81526004018082815260200191505060006040518083038186803b15801561071557600080fd5b505af4158015610729573d6000803e3d6000fd5b50505050565b610737610d51565b73ffffffffffffffffffffffffffffffffffffffff1660008054906101000a900473ffffffffffffffffffffffffffffffffffffffff1673ffffffffffffffffffffffffffffffffffffffff16146107f7576040517f08c379a00000000000000000000000000000000000000000000000000000000081526004018080602001828103825260208152602001807f4f776e61626c653a2063616c6c6572206973206e6f7420746865206f776e657281525060200191505060405180910390fd5b600073ffffffffffffffffffffffffffffffffffffffff1660008054906101000a900473ffffffffffffffffffffffffffffffffffffffff1673ffffffffffffffffffffffffffffffffffffffff167f8be0079c531659141344cd1fd0a4f28419497f9722a3daafe3b4186f6b6457e060405160405180910390a360008060006101000a81548173ffffffffffffffffffffffffffffffffffffffff021916908373ffffffffffffffffffffffffffffffffffffffff160217905550565b60008060009054906101000a900473ffffffffffffffffffffffffffffffffffffffff16905090565b6108e6610d51565b73ffffffffffffffffffffffffffffffffffffffff1660008054906101000a900473ffffffffffffffffffffffffffffffffffffffff1673ffffffffffffffffffffffffffffffffffffffff16146109a6576040517f08c379a00000000000000000000000000000000000000000000000000000000081526004018080602001828103825260208152602001807f4f776e61626c653a2063616c6c6572206973206e6f7420746865206f776e657281525060200191505060405180910390fd5b600173__DaicoUtils____________________________630130bc8890916040518263ffffffff1660e01b81526004018082815260200191505060006040518083038186803b1580156109f857600080fd5b505af4158015610a0c573d6000803e3d6000fd5b50505050565b610a1a610d51565b73ffffffffffffffffffffffffffffffffffffffff1660008054906101000a900473ffffffffffffffffffffffffffffffffffffffff1673ffffffffffffffffffffffffffffffffffffffff1614610ada576040517f08c379a00000000000000000000000000000000000000000000000000000000081526004018080602001828103825260208152602001807f4f776e61626c653a2063616c6c6572206973206e6f7420746865206f776e657281525060200191505060405180910390fd5b600073ffffffffffffffffffffffffffffffffffffffff168173ffffffffffffffffffffffffffffffffffffffff161415610b60576040517f08c379a00000000000000000000000000000000000000000000000000000000081526004018080602001828103825260268152602001806111aa6026913960400191505060405180910390fd5b8073ffffffffffffffffffffffffffffffffffffffff1660008054906101000a900473ffffffffffffffffffffffffffffffffffffffff1673ffffffffffffffffffffffffffffffffffffffff167f8be0079c531659141344cd1fd0a4f28419497f9722a3daafe3b4186f6b6457e060405160405180910390a3806000806101000a81548173ffffffffffffffffffffffffffffffffffffffff021916908373ffffffffffffffffffffffffffffffffffffffff16021790555050565b610c25610d51565b73ffffffffffffffffffffffffffffffffffffffff1660008054906101000a900473ffffffffffffffffffffffffffffffffffffffff1673ffffffffffffffffffffffffffffffffffffffff1614610ce5576040517f08c379a00000000000000000000000000000000000000000000000000000000081526004018080602001828103825260208152602001807f4f776e61626c653a2063616c6c6572206973206e6f7420746865206f776e657281525060200191505060405180910390fd5b600173__DaicoUtils____________________________63d6cf169c90916040518263ffffffff1660e01b81526004018082815260200191505060006040518083038186803b158015610d3757600080fd5b505af4158015610d4b573d6000803e3d6000fd5b50505050565b600033905090565b610e14846323b872dd60e01b858585604051602401808473ffffffffffffffffffffffffffffffffffffffff1681526020018373ffffffffffffffffffffffffffffffffffffffff1681526020018281526020019350505050604051602081830303815290604052907bffffffffffffffffffffffffffffffffffffffffffffffffffffffff19166020820180517bffffffffffffffffffffffffffffffffffffffffffffffffffffffff8381831617835250505050610e1a565b50505050565b6060610e7c826040518060400160405280602081526020017f5361666545524332303a206c6f772d6c6576656c2063616c6c206661696c65648152508573ffffffffffffffffffffffffffffffffffffffff16610f099092919063ffffffff16565b9050600081511115610f0457808060200190516020811015610e9d57600080fd5b8101908080519060200190929190505050610f03576040517f08c379a000000000000000000000000000000000000000000000000000000000815260040180806020018281038252602a81526020018061124b602a913960400191505060405180910390fd5b5b505050565b6060610f188484600085610f21565b90509392505050565b606082471015610f7c576040517f08c379a00000000000000000000000000000000000000000000000000000000081526004018080602001828103825260268152602001806111f46026913960400191505060405180910390fd5b610f85856110ca565b610ff7576040517f08c379a000000000000000000000000000000000000000000000000000000000815260040180806020018281038252601d8152602001807f416464726573733a2063616c6c20746f206e6f6e2d636f6e747261637400000081525060200191505060405180910390fd5b600060608673ffffffffffffffffffffffffffffffffffffffff1685876040518082805190602001908083835b602083106110475780518252602082019150602081019050602083039250611024565b6001836020036101000a03801982511681845116808217855250505050505090500191505060006040518083038185875af1925050503d80600081146110a9576040519150601f19603f3d011682016040523d82523d6000602084013e6110ae565b606091505b50915091506110be8282866110dd565b92505050949350505050565b600080823b905060008111915050919050565b606083156110ed578290506111a2565b6000835111156111005782518084602001fd5b816040517f08c379a00000000000000000000000000000000000000000000000000000000081526004018080602001828103825283818151815260200191508051906020019080838360005b8381101561116757808201518184015260208101905061114c565b50505050905090810190601f1680156111945780820380516001836020036101000a031916815260200191505b509250505060405180910390fd5b939250505056fe4f776e61626c653a206e6577206f776e657220697320746865207a65726f2061646472657373456e6420646174652063616e6e6f74206265206265666f72652073746172742064617465416464726573733a20696e73756666696369656e742062616c616e636520666f722063616c6c546865206d696e696d756d2066756e64696e6720616d6f756e74206d7573742062652067726561746572207468616e20305361666545524332303a204552433230206f7065726174696f6e20646964206e6f742073756363656564a2646970667358221220489b85c367aad751ace076f781f3b30ca964c2d4e21bb8a9252125d8816978d564736f6c63430007040033",
  "immutableReferences": {},
  "source": "// SPDX-License-Identifier: MIT\r\npragma solidity 0.7.4;\r\n\r\nimport \"@openzeppelin/contracts/token/ERC20/SafeERC20.sol\";\r\nimport \"@openzeppelin/contracts/access/Ownable.sol\";\r\nimport \"@openzeppelin/contracts/math/SafeMath.sol\";\r\nimport \"@openzeppelin/contracts/token/ERC20/IERC20.sol\";\r\n\r\nimport \"./DaicoUtils.sol\";\r\n\r\ncontract BasicSale is Ownable {\r\n    using SafeERC20 for IERC20;\r\n    using SafeMath for uint256;\r\n    using DaicoUtils for DaicoUtils.Data;\r\n\r\n    DaicoUtils.Data self;\r\n\r\n    event FundsWithdrawn(address indexed account, uint256 amount);\r\n    event FundsDeposited(address indexed investor, uint256 amount);\r\n    event TokensWithdrawn(address indexed investor, uint256 amount);\r\n    event TokensWithdrawnAfterFailedSale();\r\n    event FundsTapped(address recipient, uint256 amount);\r\n\r\n    function init(\r\n        address _fundRecipient,\r\n        IERC20 _token,\r\n        uint256 _totalForSale,\r\n        uint256 _startDate,\r\n        uint256 _endDate,\r\n        uint256 _minimumFunding,\r\n        uint256 _initialDevTapRate,\r\n        // uint256 _initialInvestorTapRate,\r\n        uint256 _fundingCap\r\n    ) public onlyOwner {\r\n        require(!self.initialised, \"Contract already initialised\");\r\n        require(_endDate > _startDate, \"End date cannot be before start date\");\r\n        require(\r\n            _minimumFunding > 0,\r\n            \"The minimum funding amount must be greater than 0\"\r\n        );\r\n\r\n        self.TOKEN = _token;\r\n        self.TOTAL_TOKENS_FOR_SALE = _totalForSale;\r\n        self.START = _startDate;\r\n        self.END = _endDate;\r\n        self.MINIMUM_FUNDING = _minimumFunding;\r\n        self.FUNDING_CAP = _fundingCap;\r\n\r\n        self.devTapRate = _initialDevTapRate;\r\n        // self.investorTapRate = _initialInvestorTapRate;\r\n        self.lastWithdrawn = _endDate;\r\n\r\n        self.TOKEN.safeTransferFrom(\r\n            _fundRecipient,\r\n            address(this),\r\n            _totalForSale\r\n        );\r\n        self.initialised = true;\r\n    }\r\n\r\n    receive() external payable {\r\n        require(\r\n            self.START <= block.timestamp,\r\n            \"The offering has not started yet\"\r\n        );\r\n        require(block.timestamp <= self.END, \"The offering has already ended\");\r\n\r\n        self.totalFunding += msg.value;\r\n        self.provided[msg.sender] += msg.value;\r\n\r\n        emit FundsDeposited(msg.sender, msg.value);\r\n    }\r\n\r\n    /// @notice Investors claim the tokens owed to them based on their contribution amount.\r\n    function claim() external {\r\n        self.claim();\r\n    }\r\n\r\n    /// @notice Daico owner withdraws all tokens if the minimum funding amount is not reached.\r\n    function withdrawTokenAfterFailedSale() external onlyOwner {\r\n        self.withdrawTokenAfterFailedSale();\r\n    }\r\n\r\n    /// @notice Daico owner taps current withdrawable amount.\r\n    function tap() external onlyOwner {\r\n        self.tap();\r\n    }\r\n}\r\n",
  "sourcePath": "D:\\Workspace\\daico\\contracts\\BasicSale.sol",
  "compiler": {
    "name": "solc",
    "version": "0.7.4+commit.3f05b770.Emscripten.clang"
  },
  "schemaVersion": "3.3.3",
  "updatedAt": "2021-01-23T15:46:03.671Z",
  "networkType": "ethereum",
  "devdoc": {
    "kind": "dev",
    "methods": {
      "owner()": {
        "details": "Returns the address of the current owner."
      },
      "renounceOwnership()": {
        "details": "Leaves the contract without owner. It will not be possible to call `onlyOwner` functions anymore. Can only be called by the current owner. NOTE: Renouncing ownership will leave the contract without an owner, thereby removing any functionality that is only available to the owner."
      },
      "transferOwnership(address)": {
        "details": "Transfers ownership of the contract to a new account (`newOwner`). Can only be called by the current owner."
      }
    },
    "version": 1
  },
  "userdoc": {
    "kind": "user",
    "methods": {
      "claim()": {
        "notice": "Investors claim the tokens owed to them based on their contribution amount."
      },
      "tap()": {
        "notice": "Daico owner taps current withdrawable amount."
      },
      "withdrawTokenAfterFailedSale()": {
        "notice": "Daico owner withdraws all tokens if the minimum funding amount is not reached."
      }
    },
    "version": 1
  }
}