{
  "contractName": "DaicoFactory",
  "abi": [
    {
      "inputs": [
        {
          "internalType": "address",
          "name": "radicoSystemAddress",
          "type": "address"
        }
      ],
      "stateMutability": "nonpayable",
      "type": "constructor"
    },
    {
      "anonymous": false,
      "inputs": [
        {
          "indexed": false,
          "internalType": "address",
          "name": "createdBasicSaleAddress",
          "type": "address"
        }
      ],
      "name": "BasicSaleCreated",
      "type": "event"
    },
    {
      "inputs": [],
      "name": "baseBasicSaleAddress",
      "outputs": [
        {
          "internalType": "address",
          "name": "",
          "type": "address"
        }
      ],
      "stateMutability": "view",
      "type": "function"
    },
    {
      "stateMutability": "payable",
      "type": "receive"
    },
    {
      "inputs": [
        {
          "internalType": "address",
          "name": "_baseBasicSaleAddress",
          "type": "address"
        }
      ],
      "name": "setBaseBasicSaleAddress",
      "outputs": [],
      "stateMutability": "nonpayable",
      "type": "function"
    },
    {
      "inputs": [
        {
          "internalType": "address",
          "name": "_fundRecipient",
          "type": "address"
        },
        {
          "internalType": "contract IERC20",
          "name": "_token",
          "type": "address"
        },
        {
          "internalType": "uint256",
          "name": "_totalForSale",
          "type": "uint256"
        },
        {
          "internalType": "uint256",
          "name": "_startDate",
          "type": "uint256"
        },
        {
          "internalType": "uint256",
          "name": "_endDate",
          "type": "uint256"
        },
        {
          "internalType": "uint256",
          "name": "_minimumFunding",
          "type": "uint256"
        },
        {
          "internalType": "uint256",
          "name": "_initialDevTapRate",
          "type": "uint256"
        },
        {
          "internalType": "uint256",
          "name": "_fundingCap",
          "type": "uint256"
        }
      ],
      "name": "createBasicSale",
      "outputs": [
        {
          "internalType": "address",
          "name": "",
          "type": "address"
        }
      ],
      "stateMutability": "nonpayable",
      "type": "function"
    }
  ],
  "bytecode": "0x608060405234801561001057600080fd5b506040516105fc3803806105fc8339818101604052602081101561003357600080fd5b810190808051906020019092919050505080806000806101000a81548173ffffffffffffffffffffffffffffffffffffffff021916908373ffffffffffffffffffffffffffffffffffffffff1602179055505050610566806100966000396000f3fe6080604052600436106100385760003560e01c80633c07e01414610047578063b6379bc414610098578063b87c2a991461017057610042565b3661004257600080fd5b600080fd5b34801561005357600080fd5b506100966004803603602081101561006a57600080fd5b81019080803573ffffffffffffffffffffffffffffffffffffffff1690602001909291905050506101b1565b005b3480156100a457600080fd5b5061014460048036036101008110156100bc57600080fd5b81019080803573ffffffffffffffffffffffffffffffffffffffff169060200190929190803573ffffffffffffffffffffffffffffffffffffffff169060200190929190803590602001909291908035906020019092919080359060200190929190803590602001909291908035906020019092919080359060200190929190505050610299565b604051808273ffffffffffffffffffffffffffffffffffffffff16815260200191505060405180910390f35b34801561017c57600080fd5b5061018561047c565b604051808273ffffffffffffffffffffffffffffffffffffffff16815260200191505060405180910390f35b60008054906101000a900473ffffffffffffffffffffffffffffffffffffffff1673ffffffffffffffffffffffffffffffffffffffff163373ffffffffffffffffffffffffffffffffffffffff1614610255576040517f08c379a000000000000000000000000000000000000000000000000000000000815260040180806020018281038252602481526020018061050d6024913960400191505060405180910390fd5b80600160006101000a81548173ffffffffffffffffffffffffffffffffffffffff021916908373ffffffffffffffffffffffffffffffffffffffff16021790555050565b6000806102c7600160009054906101000a900473ffffffffffffffffffffffffffffffffffffffff166104a2565b905060008190508073ffffffffffffffffffffffffffffffffffffffff16630d4b8cb98c8c8c8c8c8c8c8c6040518963ffffffff1660e01b8152600401808973ffffffffffffffffffffffffffffffffffffffff1681526020018873ffffffffffffffffffffffffffffffffffffffff16815260200187815260200186815260200185815260200184815260200183815260200182815260200198505050505050505050600060405180830381600087803b15801561038557600080fd5b505af1158015610399573d6000803e3d6000fd5b505050508073ffffffffffffffffffffffffffffffffffffffff1663f2fde38b8c6040518263ffffffff1660e01b8152600401808273ffffffffffffffffffffffffffffffffffffffff168152602001915050600060405180830381600087803b15801561040657600080fd5b505af115801561041a573d6000803e3d6000fd5b505050507f5b094a8512419be21e06f09c8bdbc557b39612164f914ce5259eef37618de89c82604051808273ffffffffffffffffffffffffffffffffffffffff16815260200191505060405180910390a1819250505098975050505050505050565b600160009054906101000a900473ffffffffffffffffffffffffffffffffffffffff1681565b6000808260601b90506040517f3d602d80600a3d3981f3363d3d373d3d3d363d7300000000000000000000000081528160148201527f5af43d82803e903d91602b57fd5bf3000000000000000000000000000000000060288201526037816000f09250505091905056fe43616c6c6572206d7573742062652052616469636f53797374656d20636f6e7472616374a2646970667358221220a6f7db499ea81f6899961bc8f31bbb4b79c66ac1b48e3d56ba887b78bee19ccc64736f6c63430007040033",
  "immutableReferences": {},
  "source": "// SPDX-License-Identifier: MIT\r\npragma solidity 0.7.4;\r\n\r\nimport \"@openzeppelin/contracts/token/ERC20/IERC20.sol\";\r\n\r\nimport \"./BasicSale.sol\";\r\nimport \"./CloneFactory.sol\";\r\nimport \"./RadicoSystemAuthority.sol\";\r\n\r\ncontract DaicoFactory is CloneFactory, RadicoSystemAuthority {\r\n    address public baseBasicSaleAddress;\r\n    //   address public baseDutchAuctionAddress; future (example)\r\n    //   address public nftTokenAddress; future (example)\r\n\r\n    event BasicSaleCreated(address createdBasicSaleAddress);\r\n\r\n    constructor(address radicoSystemAddress)\r\n        RadicoSystemAuthority(radicoSystemAddress)\r\n    {} // This calls the constructor of the RadicoSystemAuthority\r\n\r\n    function setBaseBasicSaleAddress(address _baseBasicSaleAddress)\r\n        public\r\n        onlyRadicoSystem\r\n    {\r\n        baseBasicSaleAddress = _baseBasicSaleAddress;\r\n    }\r\n\r\n    function createBasicSale(\r\n        address _fundRecipient,\r\n        IERC20 _token,\r\n        uint256 _totalForSale,\r\n        uint256 _startDate,\r\n        uint256 _endDate,\r\n        uint256 _minimumFunding,\r\n        uint256 _initialDevTapRate,\r\n        // uint256 _initialInvestorTapRate,\r\n        uint256 _fundingCap\r\n    ) external returns (address) {\r\n        address createdBasicSaleAddr = createClone(baseBasicSaleAddress);\r\n        BasicSale clone = BasicSale(payable(createdBasicSaleAddr));\r\n        clone.init(\r\n            _fundRecipient,\r\n            _token,\r\n            _totalForSale,\r\n            _startDate,\r\n            _endDate,\r\n            _minimumFunding,\r\n            _initialDevTapRate,\r\n            // _initialInvestorTapRate,\r\n            _fundingCap\r\n        );\r\n        clone.transferOwnership(_fundRecipient);\r\n        emit BasicSaleCreated(createdBasicSaleAddr);\r\n        return createdBasicSaleAddr;\r\n    }\r\n\r\n    receive() external payable {\r\n        revert();\r\n    }\r\n\r\n    // function createDutchAuction() public {\r\n    // future (example)\r\n    //}\r\n}\r\n",
  "sourcePath": "D:\\Workspace\\daico\\contracts\\DaicoFactory.sol",
  "compiler": {
    "name": "solc",
    "version": "0.7.4+commit.3f05b770.Emscripten.clang"
  },
  "schemaVersion": "3.3.3",
  "updatedAt": "2021-01-23T15:46:03.688Z",
  "networkType": "ethereum",
  "devdoc": {
    "kind": "dev",
    "methods": {},
    "version": 1
  },
  "userdoc": {
    "kind": "user",
    "methods": {},
    "version": 1
  }
}